:020000040800F2
:10000000087400207103000881400008E33C0008E8
:1000100041400008091B0008F950000800000000DA
:100020000000000000000000000000009102000835
:10003000771B000800000000ED0200081D4A0008C0
:100040008B0300088B0300088B0300088B03000858
:100050008B0300088B0300088B0300088B03000848
:100060008B0300088B0300088B0300080D1B00089E
:100070008B0300088B030008191B0008251B0008D0
:10008000311B00083D1B00088B0300088B03000890
:100090008B0300088B0300088B0300088B03000808
:1000A0008B0300088B0300088B0300088B030008F8
:1000B0008B03000800000000000000008B03000814
:1000C0008B03000800000000000000008B03000804
:1000D000000000008B0300088B03000800000000F4
:1000E0008B0300088B0300080000000000000000E4
:1000F0000000000000000000000000000000000000
:100100000000000000000000000000008B03000859
:100110000000000000000000B14A00088B03000846
:100120008B0300088B0300088B0300088B03000877
:100130008B03000800000000000000000000000029
:100140008B0300088B0300088B0300088B03000857
:100150008B0300088B0300088B0300088B03000847
:100160008B0300088B0300088B03000800000000CD
:100170008B0300088B030008000000000000000053
:100180008B0300088B0300088B03000800F002F8C3
:1001900000F06FF80AA090E8000C82448344AAF1B2
:1001A0000107DA4501D100F064F8AFF2090EBAE8B0
:1001B0000F0013F0010F18BFFB1A43F0010318479B
:1001C00070740000907400000A444FF0000C10F8A6
:1001D000013B13F0070408BF10F8014B1D1108BFC5
:1001E00010F8015B641E05D010F8016B641E01F865
:1001F000016BF9D113F0080F1EBF10F8014BAD1CB5
:100200000C1B09D16D1E58BF01F801CBFAD505E0D2
:1002100014F8016B01F8016B6D1EF9D59142D6D32C
:10022000704700000023002400250026103A28BF54
:1002300078C1FBD8520728BF30C148BF0B60704758
:10024000662907F05681642900F08681732900F041
:100250007E85002070471FB507F041F900F0D0FD02
:1002600004000020002106F099FDE0601FBD10B5DC
:1002700010BD00F0C5FE1146FFF7EDFF05F0B4F824
:1002800000F0E3FE03B4FFF7F2FF03BC00F026FF2B
:100290002C4B1968086800F05AB880F30988BFF33E
:1002A0006F8F4FF0000080F311887047000000004E
:1002B00008480068006880F308884FF0000080F369
:1002C000148862B661B6BFF34F8FBFF36F8F00DF44
:1002D00000BF00BF08ED00E0DFF80C00016841F44A
:1002E00070010160704700BF88ED00E0EFF3098006
:1002F000BFF36F8F134B1A681EF0100F08BF20ED6D
:10030000108A20E9F04F106009B44FF0500080F3DC
:100310001188BFF34F8FBFF36F8F06F00DF84FF0CA
:10032000000080F3118809BC1968086800F014B84F
:100330001EF0100F08BF00F014B880F30988BFF357
:100340006F8F70473C010020EFF30580704730C885
:10035000B0E8C04FFFF7A1BF30C8B0E8C04FFFF70B
:10036000E7BFB0EC088AB0EC08CAFFF7E6BF0000B0
:100370000948804709480047FEE7FEE7FEE7FEE739
:10038000FEE7FEE7FEE7FEE7FEE7FEE70448054975
:10039000054A064B70470000A14A00088D0100087D
:1003A000086E0020087400200870002008700020EB
:1003B00053EA020C00F069802DE9F04B4FF0000683
:1003C000002B1FBFB3FA83F503FA05F424FA05F6F0
:1003D0005E4012BF1643B2FA82F502FA05F4C5F187
:1003E00020051EBF22FA05FC44EA0C04203556EA1B
:1003F000044C4FEA144418BF641C4FF000084FF03F
:100400000009904271EB030C39D3002919BFB1FAEE
:1004100081F701FA07F6B0FA80F700FA07F6C7F19C
:1004200020071EBF20FA07FC46EA0C062037B6FB61
:10043000F4FCA7EB0507103F07F01F0BCBF12006DC
:100440000CFA0BFB2CFA06F644BFB3460026202F0D
:10045000A4BF5E464FF0000B5BEA060C08BF4FF0EE
:10046000010B19EB0B09ABFB027C48EB0608C01B28
:1004700006FB02CC0BFB03CC71EB0C01C1E70B4676
:10048000024641464846BDE8F08B13B54FF00000E8
:100490004FF00001AFF30080BDE81C407047000042
:1004A0000FB41CB5084B06AA7B446946009005981A
:1004B00000F01BFC04460020694600F029FC2046A1
:1004C0001CBC5DF814FB0000650800000FB47CB58F
:1004D0000C0009AA009001D02044401E084B7B4428
:1004E00069460190089800F000FC05461CB1002008
:1004F000694600F00DFC28467CBC5DF814FB00004A
:100500003908000070B50C460546012A05D0287848
:10051000800600D5EA69002302E0012305E05B1CA8
:10052000934202D2E05C0028F9D1A869E618C01A0B
:10053000A861286A184428622846AFF3008004E0C6
:10054000D5E9012114F8010B9047B442F8D32846AD
:10055000AFF3008070BD00002DE9F0410646002495
:1005600010687529314616A510D0AFF30080002819
:1005700002DA404213A507E031688A0701D512A5C7
:1005800002E0490704D511A5012401E0AFF3008082
:1005900000210A2206F1240709E0B0FBF2FCB0FBBF
:1005A000F2F302FB1C00303078541846491C002836
:1005B000F3D123462A463046BDE8F04100F025B984
:1005C000000000002D0000002B00000020000000B3
:1005D0002DE9F0474FF0000A89460446C0F820A0F4
:1005E0002046E1688847002876D0252806D0D4E93F
:1005F00001219047206A401C2062F1E7E168204613
:1006000000258847C4F81CA006460027C4F818A097
:100610002A2E09D0304604F098FD38B304EB870841
:10062000303EC8F8186019E059F8041B204604EB66
:1006300087029161E1688847012F064618D1E06979
:10064000002820DA25F020051DE0D8F8180000EB7E
:10065000800006EB40003038C8F818002046E168FA
:100660008847064604F071FD0028EED1012F0AD01C
:100670002E2E08D12046E16888477F1C0646022FAF
:1006800045F02005C4DBA069002803DA404245F0AC
:100690000105A061E80701D025F01005B6B1A6F16B
:1006A0004100192802D8203645F400654A463146F3
:1006B000204625604D46FFF7C3FD58B1012806D0FE
:1006C000ED1D25F0070000F1080989E704E005F1B8
:1006D000040985E730468AE7206ABDE8F08710B54F
:1006E000431C02E010F8011B71B18107FAD14FF0F1
:1006F000013202C88C1A8C4314EAC211F9D0C01A14
:100700000A0603D0C01E10BDC01A10BD0A0401D0D5
:10071000801E10BD0902FCD0401E10BD032A40F20D
:10072000308010F0030C00F0158011F8013BBCF193
:10073000020F624498BF11F801CB00F8013B38BFAB
:1007400011F8013BA2F1040298BF00F801CB38BFB9
:1007500000F8013B11F0030300F0FD82083AC0F0FD
:10076000088051F8043B083A51F804CBA0E808107F
:10077000F5E7121D5CBF51F8043B40F8043BAFF3B2
:100780000080D20724BF11F8013B11F801CB48BF0C
:1007900011F8012B24BF00F8013B00F801CB48BF42
:1007A00000F8012B704702F0FF0343EA032242EAFC
:1007B000024200F004BB4FF0000200B5134694461D
:1007C0009646203922BFA0E80C50A0E80C50B1F1A9
:1007D0002001BFF4F7AF090728BFA0E80C5048BFBD
:1007E0000CC05DF804EB890028BF40F8042B08BF5B
:1007F000704748BF20F8022B11F0804F18BF00F857
:10080000012B70477047704770472DE9F0470D4640
:1008100099469246044600F124080168880604D5EA
:10082000E06921F01001216000E00120A84201DD13
:10083000471B00E00027A1697A1902EB0900081A9A
:10084000A0612078C00602D42046AFF300800026C5
:1008500008E0D4E901211AF806009047206A401CFC
:10086000761C20624E45F4DB2078C0060AD520466F
:10087000AFF3008006E0D4E9012130209047206AE0
:10088000401C2062381EA7F10107F4DC07E0D4E920
:10089000012118F805009047206A401C2062281E9C
:1008A000A5F10105F3DC2046AFF3008020780006B7
:1008B00002D50220BDE8F0870120FBE770472DE953
:1008C000FF4F0C461E464FF0FF378BB0D2E90001B8
:1008D000DDF860800A908A46C1F30A5505B93D46A5
:1008E000002108464FF00000BAF1000F00F440006C
:1008F00005DA00EB80004FF4400101EA50004FEAB6
:100900009059B9F1010F00DDB9460A9850EA4A0042
:100910000ED044F61050A5F2FF3545432F14B8F120
:10092000000F1ED07542291E1EDDC9F100021CE019
:10093000B8F1010F4FF0000001D0302103E0F24385
:1009400005E02154401CB042FBDB30460022002170
:1009500021540B99C1F80880C1E900200FB000F0C4
:10096000BCB9BD1B6D1CDEE74A4600DA694206A829
:1009700000F0D0FA06AB93E8070003AB83E807006A
:1009800050460A9900F0B1FB8DE80700A0F5005031
:100990001F3800900398002D0ADD42F21F014A46DD
:1009A0000844002303A90390684600F01AFE09E0FA
:1009B000A0F500504A461F38002303A9039068465B
:1009C00000F024FE8DE807000004000C03D04FF077
:1009D000FF30410800E01046B8F1000F03D00022BC
:1009E000009215461EE0751E05D400F00DFA303257
:1009F00062556D1EF9D5B3460122084302D000228C
:100A00007F1C04E02078302801D100227F1E002ABC
:100A1000099784D01DE0112D07DA00F0F5F9303286
:100A200062556D1C50EA0102F5D1084302D00098CE
:100A3000C8B10EE00021681E05E0235C625C6354CF
:100A40002254401E491C8142F7DBAB46A81B401EC6
:100A50000990002004F80B000B98099AC0F8088050
:100A6000C0E9002B7AE711264FF0000857E72DE97F
:100A7000F04F88460446D21D22F0070191B0D1E91B
:100A80000001CDE90A0104F038FB02460B98C00FC3
:100A900001D02D2007E02068810701D52B2002E03E
:100AA000202101EAC000032A099001D0072A05DBB2
:100AB00003464146204600F0EDF90BE12078800620
:100AC00001D5E06900E00620B8F1650F814606D047
:100AD000B8F1660F18D0B8F1670F70D131E000207F
:100AE000B9F1110F009001DB112301E009F10103BD
:100AF0000AAA01A90CA8FFF7E2FEDDE90C700026A6
:100B000009F10105834647E001204B4600904FF074
:100B100000470AAA01A90CA8FFF7D1FEDDE90DB034
:100B20000C995D46002610B909F101000D18B9EBCA
:100B3000050003D4C0F1FF3609F10105A5EB09005A
:100B40002BE0B9F1010F01DA4FF001090020B9F1F2
:100B5000110F0090484601DD112300E003460AAA68
:100B600001A90CA8FFF7ABFEDDE90C704D4600268D
:100B70008346207800070AD4AB4500DA5D4601A819
:100B8000012D04DD411911F8011C302907D04F4512
:100B900002DA17F1040F04DA012082460FE06D1E1D
:100BA000EEE7002F02DCED1B3E4403E0781CA84278
:100BB00000DD7D1CB81B00F1010A4FF000472078D2
:100BC000000703D4AA4501DB4FF0FF3A0021B7F13B
:100BD000004F0DF143088DF8431024D002202B2341
:100BE000002F01DA7F422D230A21021EA0F101000D
:100BF00000DC5FB197FBF1FC97FBF1F201FB1C7C81
:100C000017460CF1300C08F801CDEEE7A8F1010011
:100C100003702188090501D5452100E06521A0F177
:100C2000010800F8011C09980FA9A1EB0807FF1D96
:100C300000B10120411901EBEA70A1693844081A9A
:100C4000401EA0612078C00602D42046AFF3008089
:100C5000099828B1D4E901219047206A401C2062FC
:100C60002078C00622D52046AFF300801EE0002E7B
:100C700004DBB34502DD01A8805D00E03020D4E94B
:100C800001219047206A401C2062761CAAF10100D5
:100C90005FEA000A0AD100F0B3F8C0680168405C5E
:100CA000D4E901219047206A401C2062281EA5F14A
:100CB0000105DCDC07E0D4E9012118F8010B9047BD
:100CC000206A401C2062381EA7F10107F3DC204691
:100CD000AFF30080032011B041E630BCBDE8C08F07
:100CE00001694A1C02610878704700B58FB0CDE9F0
:100CF00001310021059105497944CDE903101146E0
:100D00006846FFF765FC0FB000BD0000E5FFFFFF80
:100D10000A6802F8010B0A607047D1E900239A4281
:100D200002D2531C0B601070704710B5436913B1A9
:100D3000AFF3008001E0FFF7E5FB012010BD127862
:100D400000F124010A7000224A700122EDE71168C7
:100D50004FF0FF32E9E710B5203AC0F00B80B1E860
:100D60001850203AA0E81850B1E81850A0E81850E0
:100D7000BFF4F5AF5FEA027C24BFB1E81850A0E8E9
:100D8000185044BF18C918C0BDE810405FEA827C03
:100D900024BF51F8043B40F8043B08BF7047D2071A
:100DA00028BF31F8023B48BF11F8012B28BF20F8BB
:100DB000023B48BF00F8012B70474FF000020429A6
:100DC000C0F0128010F0030C3FF4F7ACCCF1040C2F
:100DD000BCF1020F18BF00F8012BA8BF20F8022BAE
:100DE000A1EB0C01FFF7E9BC5FEAC17C24BF00F86E
:100DF000012B00F8012B48BF00F8012B70470000C1
:100E000000487047C46D002030B5B0F10A024FEAC7
:100E1000900E71F100034EEA817EB0EB0E0061EBA3
:100E200091014FEA101E4EEA017E10EB0E0041EBDD
:100E300011114FEA102E4EEA016E10EB0E0041EB3D
:100E400011214FEA104E4EEA014E10EB0E0041EB1D
:100E50001141401841F100014FEAD00040EA4170D1
:100E60004FEAD10110EB80054FEA810444EA907407
:100E700044EB01046D1944EB0404521BA3414FF0F1
:100E8000000348BF0A3200D530BD401C41F10001CB
:100E900030BD00002DE9F0411F46044603260168DD
:100EA000072A01F4006004DB08B116A505E016A5C9
:100EB00003E008B115A500E015A521F010002060A1
:100EC000A069C01EA0610FB1401EA0612046AFF313
:100ED00000804FB1D4E9012138469047206A401C78
:100EE0002062C01C206206E0206AFAE7D4E90121F2
:100EF00015F8010B9047761EF8D22046AFF300801C
:100F0000BDE8F0814E414E006E616E00494E4600D4
:100F1000696E66002DE9F047814616468AB035486D
:100F200078440DC88DE80D0032487844801C03AC2D
:100F30000DC884E80D0041F69B300844372190FB32
:100F4000F1F290FBF1F5A5F1800501FB12041B3CC9
:100F500002D56442012000E00020DFF898A080461E
:100F60000027FA44AAF1BE0A0EE0E0070AD0324692
:100F7000684607EB470101230AEB810100F046FBBD
:100F80008DE8070064107F1C002CEED1194F7F44C0
:100F9000AE3F19E0E80715D007EB04100DF1180A71
:100FA00090E80E008AE80E00C068F04201D198195E
:100FB00008903246012306A903A800F027FB03ABE3
:100FC00083E807006D10641C002DE3D14FF001038E
:100FD00032466946B8F1000F03A802D000F001FBC9
:100FE00001E000F013FBC9E90001C9F808200AB0CC
:100FF000BDE8F087E066000000487047A46D00205F
:101000007546FFF7F9FFAE4605006946534620F0E6
:101010000700854618B020B5FFF7B8F9BDE82040B5
:101020004FF000064FF000074FF000084FF0000BA4
:1010300021F00701AC46ACE8C009ACE8C009ACE857
:10104000C009ACE8C0098D46704710B50446AFF33F
:1010500000802046BDE81040FFF714B94FF0013C76
:1010600050F8042B51F8043B9A4221D1A2EB0C0317
:10107000934313EACC1317D150F8042B51F8043BD7
:101080009A4215D1A2EB0C03934313EACC130BD174
:1010900050F8042B51F8043B9A4209D1A2EB0C03FF
:1010A000934313EACC13DBD04FF00000704700BF2E
:1010B000D01A01BAB1FA81F101F0180122FA01F057
:1010C000CB40C1F12001DBB2C0B2C01A2CFA01F34F
:1010D000D11A914311EAC311E6D170470149182092
:1010E000ABBEFEE72600020070475FEA400C08BF77
:1010F00091F0000F4FEA8C234FEAC12243EA51518D
:101100004FEA1C5018BF00F5F0404FEA300018BFFE
:1011100041F000415FEA6C5C00F02980BCF1FF3FC8
:1011200008BF40F080407047130C06BF12044FF018
:10113000100C4FF0000C130E04BF12020CF1080C3F
:10114000130F04BF12010CF1040C930F04BF9200A3
:101150000CF1020CD30F04BF52000CF1010C11462C
:101160004FF00002A0F11F00A0EB0C00704711F03F
:10117000004F08BF704731F000413FF4D5AF0B0C72
:1011800006BF09044FF0100C4FF0000C0B0E04BF0B
:1011900009020CF1080C0B0F04BF09010CF1040C3F
:1011A0008B0F04BF89000CF1020CCB0F04BF490068
:1011B0000CF1010CCCF12003A0EB0C0022FA03F39C
:1011C00002FA0CF241EA030100F10100704720F03D
:1011D0007F4C80EA030023F07F47ACEB070303F565
:1011E0007C5300F0004003F1FF032DE980494FEAF2
:1011F000154B09B44FEA144325EA0B4E24EA034881
:101200000FF2042606EB132749083E785FEA320204
:1012100003FB0667C7F5000707FB06F64FEA5437DE
:101220004FEAD64606F1020607FB066CCCF1005CDD
:101230004FEA1C472CEA074C07FB06F40CFB06F5AB
:1012400004EB15464FEA961634BF00204FF00040DD
:101250004FEAD13706FB07FC4FEA1C4C0CFB0BF79F
:10126000D21B03FB0CF761EB07010CFB0EF7B0EB95
:10127000074072EB17420CFB08F734BFA2EB0742A2
:10128000B2EB074261EB17414FEA0C444FEA91077A
:1012900006FB07FC4FEA1C4C0CFB0BF7B0EBC740FE
:1012A00072EB573203FB0CF734BFA2EBC742B2EB31
:1012B000C74261EB57310CFB0EF7B0EBC70072EB86
:1012C00057720CFB08F734BFA2EBC702B2EBC702A0
:1012D00061EB5771039F4FEA816141EA921104EB80
:1012E000CC044FEAD1374FEA826206FB07FC42EAA0
:1012F00090124FEA80604FEA1C4C0CFB0BF7D21B9C
:1013000003FB0CF761EB07010CFB0EF7B0EB07409A
:1013100072EB17420CFB08F734BFA2EB0742B2EBAB
:10132000074261EB17414FEA8C554FEA910704EBF6
:101330009C2406FB07FC4FEA1C4C0CFB0BF7B0EBA4
:10134000C74072EB573203FB0CF734BFA2EBC74226
:10135000B2EBC74261EB57310CFB0EF7B0EBC700A5
:1013600072EB57720CFB08F734BFA2EBC702B2EB6B
:10137000C70261EB577115EB4C254FEA816141EAD9
:1013800092114FEA82624FEAD13742EA901206FB8D
:1013900007FC44F100044FEA80604FEA1C4C0CFB50
:1013A0000BF7D21B03FB0CF761EB07010CFB0EF7ED
:1013B000B0EB074072EB17420CFB08F734BFA2EB0F
:1013C0000742B2EB074261EB174115EB1C154FEAE0
:1013D000813141EA92414FEA823242EA90424FEA39
:1013E00080304FEA0C7644F1000448EA03434EEAA9
:1013F0000B484FF0000EB2EB080C71EB030724BF53
:10140000624639464EEB0E0E4FF0000B001852416B
:1014100049414BEB0B0BB2EB080C71EB03077BF173
:10142000000B24BF624639464EEB0E0E4FF0000B08
:101430000018524149414BEB0B0BB2EB080C71EB1E
:1014400003077BF1000B24BF624639464EEB0E0EBC
:1014500051EA020718BF46F0010616EB0E7655F169
:10146000000254F1000103D5BDE88901BDE8008800
:10147000BDE88901BDE80048B619524141EB0101C0
:10148000A3F10103704780807F7E7D7C7B7A797831
:10149000777676757473727171706F6E6E6D6C6C39
:1014A0006B6A6A69686867666665646463636261DB
:1014B0006160605F5F5E5E5D5D5C5C5B5B5A5A595C
:1014C00059585857575656555555545453535252C8
:1014D0005251515050504F4F4F4E4E4D4D4D4C4C20
:1014E0004C4B4B4B4A4A4A49494948484847474769
:1014F00047464646454545444444444343434342A6
:10150000424242414141002B9C4630D477002BD0CF
:101510001CB54FEA370703B44FF010004FF010012D
:10152000BAF1000F06D0BCF1000FDCBF40F008009C
:1015300040F008014FF000000FBCBDE810400BF177
:10154000010BBBF1010F08BF5FEA170722BF12F1C1
:10155000010211F101014FF0004143F1000300F0DD
:10156000004043EA00007047F9D35708D0E746EA45
:10157000064613F1400F4FEA16461FDD13F1200F08
:10158000DFBF16430A46002120335B42BED0C3F1C1
:10159000200746EA064602FA07F74FEA164646EAE9
:1015A0000706C3F1200722FA03F201FA07F721FA2E
:1015B00003F14FF0000342EA0702A7E746EA0206FA
:1015C00046EA06464FEA164646EA0106BCBF46EA28
:1015D0000646360C4FF000034FF000024FF00001BA
:1015E00094E72DE9804C9A46934670B491E8380010
:1015F00007C831EA400C48BF34EA430C03D5FFF773
:10160000E6FDFFF780FFF0BCBDE8008C2DE9804CC3
:101610009A46934670B491E8380007C810F0804F9E
:1016200008BF13F0804F03D100F005F8FFF76BFF00
:10163000F0BCBDE8008C20F07F4780EA030023F077
:101640007F4C07EB0C03A3F57C5300F00040A3F1A3
:10165000FE0392F0000F00F0B38095F0000F00F051
:1016600077802DE901494FEA11404FEA144621EAFB
:10167000004800FB06FC24EA064708FB06F607FBC9
:1016800008F800FB07F718EB06484CEB164C4FEA3E
:10169000124B18EB07484FEA15464CEB174022EA6D
:1016A0000B4E0BFB06FC25EA06470EFB06F607FB76
:1016B0000EFE0BFB07F71EEB064E4CEB164C4FF0E5
:1016C00000061EEB074E4CEB174B18EB0B0840F1D6
:1016D000000018EB0E0B58EB000840F100008F1AC9
:1016E0004FF000013CBFC943661B14BFB5EB040CAF
:1016F00000213CBFC943F61B4FEA17444EEA8E0E49
:1017000027EA04454FEA1C4704FB07622CEA074C12
:1017100005FB07F70CFB05F604FB0CFC16EB074674
:1017200042EB174216EB0C4642EB1C421BEB060643
:1017300058EB0202414146EA9E0601D5BDE8018907
:10174000B619524141EB0101A3F10103BDE8018942
:101750004FEA14454FEA114724EA054621EA074CAF
:1017600005FB07F406FB07F70CFB06F105FB0CFC79
:1017700011EB074144EB17444FEA124711EB0C41C0
:1017800044EB1C4422EA074C05FB07F206FB07F773
:101790000CFB06F605FB0CFC16EB074642EB17426A
:1017A00016EB0C4642EB1C456A1854F1000148BF89
:1017B0007047B619524141EB0101A3F10103704793
:1017C00095F0000F37D04FEA11424FEA144721EA53
:1017D000024624EA074C02FB07F106FB07F70CFB65
:1017E00006F402FB0CFC14EB074441EB17414FEAF3
:1017F000154714EB0C4441EB1C4125EA074C02FB56
:1018000007F506FB07F70CFB06F602FB0CFC16EBD4
:10181000074645EB174516EB0C4645EB1C421219E3
:1018200051F1000148BF7047B619524141EB010127
:10183000A3F1010370474FEA14454FEA114724EA28
:10184000054621EA074C05FB07F106FB07F70CFBF1
:1018500006F24FF0000605FB0CFC12EB074241EBD1
:10186000174112EB0C4251EB1C4148BF70479218D4
:1018700041EB0101A3F10103704700002DE9F041A4
:10188000044600270D46006802F078FA06462068F4
:1018900002F070FA30435DD02068C1682E4E890195
:1018A00005D5617E012902D1217E01290BD0022DAF
:1018B0001DD0206802F062FAB8B120688168C1F3D7
:1018C000400169B111E00125244902E08F4232D282
:1018D0007F1C0268D2435206F8D440210160E8E739
:1018E0008168314041F010018160012D11D02068E4
:1018F00002F040FA48B120688168C1F3400121B983
:101900008168314041F020018160022D08D0032D13
:1019100004D0042501F0CCF8064617E00C25F9E7C1
:101920000825F7E701F0C4F8801B05280ED92068C8
:10193000806828420AD0606D40F010006065A06D9C
:1019400040F00100A0650120BDE8F08120688068BA
:101950002842E7D10020F7E7C0FFFF7F000040A347
:1019600010B5846A616D11F0500F06D0616DC90623
:1019700025D5204600F0A3FC10BD606D40F400703A
:10198000606520680168090716D502F0FBF978B197
:101990002068C068800400280ADB606D20F4807035
:1019A0006065606DC00403D4606D40F00100606547
:1019B000204600F01FFB10BDC0688007EBE7E16C1C
:1019C000496BBDE81040084710B5806A416D41F091
:1019D00040014165816D41F00401816500F06FFCBB
:1019E00010BD10B5806A00F069FC10BD70B50446EA
:1019F000006881688268C1F3400112F0010F28D0AD
:101A000039BB816801F00D01012914D18168124AA6
:101A10001140891C816021680320086001F048F8AA
:101A2000054612E001F044F8401B02280DD9206859
:101A30008068C00709D0606D40F010006065A06D3F
:101A400040F00100A065012070BD20688068C007DB
:101A5000E8D1002070BD0000C0FFFF7FF8B504464C
:101A6000002000902068816811F0010F41D1816849
:101A7000214A11422ED18168D5432940491C8160F9
:101A80001E48806800F0E07000020DD51C481D491A
:101A90000068B0FBF1F0401C00EB4000800000E06B
:101AA000401E00900028FBD101F002F806461BE022
:101AB000816811F0010F03D181682940491C8160C0
:101AC00000F0F6FF801B02280ED920680068C04392
:101AD000C00709D0606D40F010006065A06D40F057
:101AE0000100A0650120F8BD20680168C943C9074D
:101AF000DED10020F8BD00003F000080000304504C
:101B000038010020400D0300FEE70000014800F00E
:101B1000C1BD000064530020014800F0BBBD0000BF
:101B2000F4530020014800F0B5BD0000AC53002084
:101B3000014800F0AFBD000084540020014800F0CF
:101B4000A9BD00003C54002030B590F8444004F09A
:101B50001C050124AC40056C6C60046863608368FC
:101B6000102B036803D099600068C26030BD9A6092
:101B70000068C16030BD70471CB51D4C1D49606ECA
:101B8000884210DB05F03AFC41EC100B04F5807044
:101B900090ED001B51EC100B53EC112B05F046F9A6
:101BA00005F012F9606605F029FCCDE90001104846
:101BB00011A20521EC30FEF789FC0D48EC30FEF750
:101BC0008EFD606704F0BCF94FF4FA74204603F010
:101BD00077FC03F063FB204603F072FC03F06CFB20
:101BE000204603F06DFCBDE81C4004F08DB90000F8
:101BF0000000002000004040252E3166000000005B
:101C000072B6FEE72DE9F84F00270446009790F8DA
:101C10005000DFF8AC930D46B846012811D00126DC
:101C200084F85060206802F0A9F860B1606D40F05F
:101C3000200060655FF0010784F85080384600F0AE
:101C4000D5B90220FBE76868052808D8022825D006
:101C5000032825D0042825D0052825D00620216872
:101C60000C2303EA901319442A680B6B00F01F0041
:101C70004FF01F0C0CFA00FCC2F3846223EA0C0341
:101C8000824013430B63206802F078F88246206894
:101C900002F070F85AEA000009D09AE00C20DEE762
:101CA0001220DCE71820DAE74FF48070D7E7AA6843
:101CB0002968206802F06EF820686969C268C2F37A
:101CC000C102520091402A69042A0FD000EB820021
:101CD0002B68026EDFF8ECC203F0F84302EA0C0254
:101CE0000B431A4342F00041016672E0002102F00A
:101CF0003BF8400320684FF0000172D002F034F846
:101D000090FAA0F0B0FA80F1286842036ED090FA01
:101D1000A0F0B0FA80F0814204D100221146206880
:101D200002F047F80121206802F01EF84003206805
:101D30004FF001015DD002F017F890FAA0F0B0FA70
:101D400080F12868420359D090FAA0F0B0FA80F0F0
:101D5000814204D100220121206802F02AF80221E8
:101D6000206802F001F8400320684FF0020148D0DB
:101D700001F0FAFF90FAA0F0B0FA80F1286842036F
:101D800044D090FAA0F0B0FA80F0814204D1002251
:101D90000221206802F00DF80321206801F0E4FF21
:101DA000400320684FF0030133D001F0DDFF90FACB
:101DB000A0F0B0FA80F1286842032FD090FAA0F08A
:101DC000B0FA80F0814204D100220321206801F0A2
:101DD000F0FF2068816811F0010F22D0ABE000E035
:101DE00004E001F0C1FFC0F384618DE7C0F38460BB
:101DF00091E701F0B9FFC0F38461A2E7C0F384600A
:101E0000A6E701F0B1FFC0F38461B7E7C0F38460D7
:101E1000BBE701F0A9FFC0F38461CCE7C0F38460A5
:101E2000D0E72A7B296850F8B03FC1F3120C23EAAF
:101E30000C0302F0180C644A22FA0CF20A40134315
:101E40000360E968494576D1286841031BD090FAC0
:101E5000A0F1B1FA81F1491C01F01F0109294FEAF3
:101E6000403131D8002911D090FAA0F1B1FA81F1B6
:101E700001F1010101F01F0106FA01F609D100BFCD
:101E8000C0F3846109E0C0F38461E4E7C0F38461D6
:101E9000EEE790FAA0F1B1FA81F101F1010101F050
:101EA0001F0146EA816102D1C0F3846003E090FA29
:101EB000A0F0B0FA80F000F1010000F01F0000EB8C
:101EC000400041EA005132E000290ED090FAA0F122
:101ED000B1FA81F101F1010101F01F0106FA01F6E9
:101EE00006D100BFC0F3846106E0C0F38461F1E76E
:101EF00090FAA0F1B1FA81F101F1010101F01F01A5
:101F000046EA816102D1C0F3846003E090FAA0F058
:101F1000B0FA80F000F1010000F01F002B4A00EB46
:101F2000400002EB005041EA000141F00071AA6854
:101F3000206801F02FFF26482A6802423FF47CAE59
:101F400024488168244D254B01F0E071AA421BD141
:101F50000D0219D422689A427FF46EAE826841F471
:101F6000000122F0E0720A4382601D481D490068AA
:101F7000B0FBF1F0401C00EB4000800000E0401E90
:101F800000900028FBD157E6174DAA4207D1CD019A
:101F900005D422689A42F6D141F080710AE06FF0D0
:101FA0000045EA42EFD14A02EDD422689A42EAD1D2
:101FB00041F48001826822F0E0720A4382603BE6CD
:101FC00000007F4000F0FF03FFFF0700000020FE3D
:101FD0000000088000030450000052C700000450B5
:101FE00038010020400D0300000084CB18BCBDE880
:101FF000E08F00002DE9F0419D4C4FF47A722DEDF9
:10200000028B04F18005E06B01285FD00021994B21
:10201000084600BF33F81060401C31449042F9DBA1
:10202000904691FBF8F6924F3046F8377E6004F008
:10203000D2FF9FED911B53EC112B04F0F7FF9FEDA6
:10204000901B53EC112B05F0EFF804F097FFA862FA
:102050003E60606805F0D2F99FED8B1B53EC112BAD
:1020600004F0E4FF41EC180BA86A04F0CBFF9FEDED
:10207000881B53EC112B04F0D9FF53EC182B04F000
:10208000D5FE04F0A1FE00EE100A85ED0B0A84EDEA
:10209000010AA068012851D19FED7F8A642160EE7A
:1020A000080AFDEEE00A10EE900A90FBF1F201FB47
:1020B0001200421E182A45D8BDEEC00A10EE100AC2
:1020C00000EBC00101EB0010192162E09FED730AE3
:1020D000734B002033F8101000EE901A03EB400110
:1020E000F8EE600A4E8830EE822A00EE906A8E8802
:1020F000F8EE600A70EEA11A00EE906AC988F8EE58
:10210000600A30EE811A00EE901A001D9042F8EE3F
:10211000600A30EE800ADDDBDFED620AC2EE202AC3
:1021200081EEA02AC5ED0D2AC1EE201A85ED0E2AFA
:1021300080EE201AC5ED0F1A84ED041ABDEC028B57
:10214000BDE8F081A0F11A02182A09D8BDEEC00A34
:1021500010EE100A00EBC00101EB0010322118E074
:10216000A0F13302182A09D8BDEEC00A10EE100AF9
:1021700000EBC00101EB00104B210AE04C3818289D
:102180000AD2BDEEC00A10EE100A00EBC00202EB4C
:10219000001001EB8000606394ED0D0A4249B8EE37
:1021A000C00A85ED0B0ABDEEC00A286B10EE102A9E
:1021B00051F820309342C1D04045BFDA401C10EEA8
:1021C000102A286341F82020A2630428B6DD01EB21
:1021D000800151E90320904203DB51F8043C98420E
:1021E00005DC9042AADA51F8041C8842A6DC00EE15
:1021F000100A2E4D216BB8EEC00A05EB810181ED6E
:10220000000A00EE100A012129A0B8EEC00A84EDF0
:10221000050A01F025FF2849206B0140012922D140
:1022200005EB800100EBD07091ED000A51ED010A41
:10223000401005F57A6130EE600A01EB8000C0EED7
:10224000080AC0ED000A00F033FC00EE100A206B13
:1022500005F5FA5100EBD070B8EE400A401001EBE2
:10226000800080ED000A206B401C206366E70000C0
:1022700000000020D8320020DF4F8D976E12B33F50
:102280009F3C2CD49A6627407B14AE47E17A843F6A
:10229000AE47E17A14AEEF3F0000C84200000000F4
:1022A000A83A002000007A43BC0100205C11002005
:1022B0006265617400000000010000807047704793
:1022C000F8B54FF0000504002E46009502D0606D71
:1022D00010B107E00120F8BD204600F0C5F8A66562
:1022E00084F8506020688168C1F3407119B1816839
:1022F000554A1140816020688168C1F3007189B935
:102300008168524A114041F08051816050485149E2
:102310000068B0FBF1F04000801C00E0401E00901F
:102320000028FBD120688168C1F3007141B9616D5B
:1023300041F010016165A16D41F00101A165012528
:1023400001F01CFD616DC90600D430B1606D40F034
:102350001000606501252846F8BD606D20F480708E
:1023600040F0020060652068806810F0010F0BD11A
:102370003948806810F0010F06D1384861688268DA
:1023800022F47C120A438260E168606B627E08433B
:10239000A16841EA4231084394F8201040EA014024
:1023A000012904D1A18C2E4A02EB41410843A16AC4
:1023B00029B101F47071E26A014342EA0100216827
:1023C000CA68284B1A400243CA60206801F0D2FC58
:1023D000A8B9207E94F83010800340EA41022068BA
:1023E000C16844F2020399431143C16094F8380074
:1023F00001280CD02068016921F0010101612069E8
:1024000001282068016B21F00F0111D013E0D4E9FD
:102410000F010843D4E911121143084321680A69E6
:1024200040F2FC739A43104340F001000861E6E774
:10243000E269521E11430163606D20F0020040F01A
:102440000100606587E70000C0FFFF5FC0FFFF7FFE
:1024500038010020400D0300000004500003045028
:102460000000FEFF07C0F0FF70B59CB006461421C7
:1024700015A8FEF7A0F954216846FEF79CF92249F9
:10248000306888423ED14FF4804000904FF0405079
:102490001290684600F00CFC08B1FFF7B1FB1B4935
:1024A000C86C40F40050C864C86C00F400501A9026
:1024B000C86C40F00100C864C86C002500F0010041
:1024C0001A90B32015900B20CDE9160515A94FF0F1
:1024D000904000F0E7F90F4C0D48C4E9000580205A
:1024E000A560C4E90350400060618000A061202025
:1024F000C4E90705204600F02BF908B1FFF780FB7F
:10250000F464A6621CB070BD0000045000100240CC
:10251000080002406453002070B5044615460E467C
:10252000006801F02BFCE0BB94F85000012842D079
:10253000012084F850002046FFF790FA002110B1E6
:1025400084F8501070BD606D40F60162904340F415
:1025500080706065606DC00404D5A06D20F0060039
:10256000A06500E0A165E26C1448D062E26C1448FA
:102570001063E26C1348506322681C20106084F8DA
:1025800050102068416841F0100141602068C16826
:1025900041F00101C16021682B4632464031E06CB8
:1025A00000E008E000F034F921688A68064B1A4020
:1025B000121D8A6070BD022070BD00006119000804
:1025C000E3190008C9190008C0FFFF7F70B5044671
:1025D00090F85000012809D0012084F85000032110
:1025E0002046FFF74BF9050002D027E0022070BD1E
:1025F0002068C16821F00101C160E06C90F82510ED
:10260000022907D100F01FF8050003D0606D40F0EB
:10261000400060652068416821F01001416020465B
:1026200015B1FFF7E3F909E0FFF7E0F9050005D17F
:10263000606D20F4885040F001006065002084F84F
:102640005000284670BD10B590F8251000220229D0
:1026500005D00421C16380F82420012010BD016849
:102660000B6823F00E030B6001680B6823F0010375
:102670000B6090F84410046C01F01C03012101FA76
:1026800003F3636080F8251080F82420104610BD05
:10269000C06B7047F0B4016C0C6801680D6890F86D
:1026A000442002F01C06042202FA06F3234211D051
:1026B0006B070FD50B689B0603D40B6823F004034C
:1026C0000B6090F8441001F01C018A40016C4A60D4
:1026D000016B1DE0022303FA06F727424FF0000CBE
:1026E0004FF0010218D0AF0716D50C68A40605D428
:1026F0000C6824F00A040C6080F8252090F844103F
:1027000001F01C018B40016C4B6080F824C0C16A51
:1027100000291AD0F0BC08470823B340234214D044
:102720002B0712D50B6823F00E030B6090F84410B2
:10273000036C01F01C0102FA01F15960C26380F8D8
:10274000252080F824C0416BE2E7F0BC7047000010
:1027500070B568B12B4C036814212B4AA34209D2EF
:102760002A4C1C44B4FBF1F18900C0E910210BE0B4
:10277000012070BD234C64421C44B4FBF1F189007C
:102780004164204908390164022180F825101C6841
:1027900047F6F0718C43D0E902152943D0E904567D
:1027A0003543294385692943C5692943056A294376
:1027B000214319608168B1F5804F19D0036C0F2156
:1027C000934202D152F8A83F02E00E4AA0321368A9
:1027D00090F8444004F01C04A1408B43136090F82F
:1027E0004430416803F01C03994013681943116099
:1027F0000021C163012280F8252080F824100846BA
:1028000070BD00000804024000000240F8FFFDBF58
:1028100070B5044690F82400002501280CD0012052
:1028200084F8240094F825600020012E06D084F856
:1028300024000225284670BD022070BD022684F8BF
:102840002560E0632068066826F0010606602046E1
:10285000FFF77AF9206B00282068016802D041F068
:102860000E0106E021F0040101602068016841F0DA
:102870000A0101602068016841F001010160D9E7A7
:1028800070B5044600F014F90546601C02D00448F7
:102890000078044400F00CF9401BA042FAD370BD4C
:1028A0002C0100202DE9F04FDFF8E09100230127F3
:1028B0000326A9F1040B85B00F2509F1040AABF139
:1028C000040EDBE007FA03FC12EA0C027ED00C795E
:1028D00004F00304012C01D0022C20D18468009460
:1028E0005C0006FA04F80494009C24EA08040094AE
:1028F000D1F80C80049C08FA04F8009C48EA04080B
:10290000C0F80880446824EA0C0491F804C0CCF3B1
:10291000001C0CFA03FC4CEA040CC0F804C00C794F
:10292000E443A4070DD0D0F80CC04FEA430806FAE0
:1029300008F42CEA040C8C6804FA08F444EA0C0449
:10294000C4600C7904F00304022C19D1DC0800EBFC
:1029500084040294246A4FEA437C4FEADC6CCDF88D
:1029600010C005FA0CFC24EA0C04D1F81080DDF844
:1029700010C008FA0CF848EA0408029CC4F8208049
:1029800004684FEA430806FA08FC24EA0C0491F8AC
:1029900004C00CF0030C0CFA08FC4CEA040CC0F860
:1029A00000C04C6814F4403F67D0394CD4F860C084
:1029B0004CF0010CC4F860C0246E23F0030C04F04A
:1029C00001040094334C6444029400E055E0A46890
:1029D0004FEA837C4FEA1C7805FA08FC24EA0C04D1
:1029E000B0F1904F06D0DFF8B0C0604505D14FF090
:1029F000010C0BE04FF0000C08E0DFF8A0C06045D0
:102A000002D14FF0020C01E04FF0070C0CFA08FC69
:102A10004CEA040C029CC4F808C0D9F80040CC462B
:102A2000D1F8048094435FEAC82800D51443CCF859
:102A30000040DAF80040D446D1F8048094435FEABD
:102A4000882800D51443CCF80040DBF80040DC4671
:102A5000D1F8048094435FEA883800D51443CCF859
:102A60000040DEF80040F446D1F8048094435FEA69
:102A7000C83800D51443CCF800405B1C0C682246D3
:102A8000DC407FF41FAF05B000F00AB80804014035
:102A90000010024000000140000400480008004807
:102AA00030BCBDE8C08F0AB1816170478162704758
:102AB00001488068704700002C01002002488168AE
:102AC00002781144816070472C01002010B5002469
:102AD000032000F09FF80F2000F008F808B101244F
:102AE00001E000F04FF8204610BD000030B505466B
:102AF0001F4887B0816D41F010018165806D06A986
:102B000000F01000009001A800F0BAFA0498B0B1EB
:102B100000F0D6FA40001749174AB0FBF1F1174808
:102B2000491E0260416040F2E7320021C0E9032102
:102B30008160816100F0EDFD040003D015E000F03C
:102B4000BFFAE8E70D4800F017FE04000DD136206B
:102B500000F032F8102D07D200222946362000F06E
:102B600039F80748056000E0012407B0204630BD71
:102B70000010024040420F0000100040CC540020E2
:102B8000300100200B4882B0016E41F00101016666
:102B9000016E01F001010091816D41F0805181656C
:102BA000806D002200F0805000900F21901E02B036
:102BB00000F010B800100240002809DB00F01F02EE
:102BC000012191404009800000F1E020C0F800118F
:102BD00070470000F0B40E4B1B680C46C3F3022391
:102BE000C3F10705042D00D90425191D072901D2B9
:102BF000002300E0DB1E012606FA05F1491E2140F4
:102C000099409E40761E16403143F0BC02F08DBACA
:102C10000CED00E0064900F0070208684FF6FF03DC
:102C2000184040EA0220034A104308607047000041
:102C30000CED00E00000FA051649B0F5007F0868C9
:102C4000C0F3412009D0022805D0086820F4C060F4
:102C500040F480600860002070470128FBD00868BD
:102C600020F4C06040F4007008600B483222006815
:102C700050430A4AB0FBF2F0401C00E0401E4A6993
:102C8000520501D50028F9D148694005E3D5032054
:102C900070470000007000403801002040420F00E3
:102CA0000248006800F4C0607047000000700040F7
:102CB0002DE9F84F0446002700889C4D3E4600054C
:102CC00015D5E06B60B1B0F5000F04D0B0F5400F42
:102CD0002BD001270AE0E86840F48030E86024E067
:102CE0000021201D01F0CEF907001ED03E462068CD
:102CF000800338D5A86D4FF00008C00009D4A86D36
:102D000040F08050A865A86D4FF0010800F0805099
:102D10000090DFF81CA2DAF8001041F48071CAF8C4
:102D20000010FFF7C5FE814610E0D5F88800E16B82
:102D300020F440000843C5F88800D8E7FFF7B8FE44
:102D4000A0EB0900022801D9032704E0DAF800000B
:102D5000C005F3D5EFB33E46B8F1000F03D0A86D20
:102D600020F08050A8652078C00707D0D5F88800EB
:102D7000216A20F003000843C5F888002078800706
:102D800007D5D5F88800616A20F00C000843C5F823
:102D900088002078800607D5D5F88800A16A20F43D
:102DA00040600843C5F888002088800507D5D5F81D
:102DB0008800616B20F440200843C5F88800208813
:102DC000400509D5D5F88800A16B20F440100843D0
:102DD00000E02EE0C5F888002078400607D5D5F839
:102DE0008800E16A20F440500843C5F88800208834
:102DF000C00507D5D5F88800216B20F44030084382
:102E0000C5F8880020884FF0006780044FF0806884
:102E10004ED5D5F88800216C20F040600843C5F8F5
:102E20008800206CB8423BD1E86840F48010E8602C
:102E30003EE0D5F8900010F4407014D0216D81422E
:102E400011D0D5F89000D5F8901020F4407041F4DE
:102E50008031C5F89010D5F8901021F48031C5F874
:102E60009010C5F89000C00711D0FFF721FE07466B
:102E700041F2883907E000BFFFF71AFEC11B494540
:102E800001D9032668E7D5F890008007F4D5D5F876
:102E90009000216D20F440700843C5F890005BE776
:102EA000404505D10121201D01F0ECF800B1064696
:102EB0002068400317D5D5F88800616C20F0406089
:102EC0000843C5F88800606CB84204D1E86840F453
:102ED0008010E86007E0404505D10121201D01F088
:102EE000D1F800B106462088400411D5D5F88800F5
:102EF000A16C20F040500843C5F88800A06CB0F1E8
:102F0000805F05D10221201D01F0BCF800B106460A
:102F10002088000406D555F8880FE16C20F0804029
:102F200008432860304600F005B800000010024059
:102F30000070004018BCBDE8E08F00002DE9F047AC
:102F40000F4605006BD0494E306800F00700B842CC
:102F500009D2306820F0070038433060306800F054
:102F60000700B8425BD12878414C80070AD5A86891
:102F7000A16801F0F001884204D9A16821F0F001B4
:102F80000143A1602878C0072CD06868032811D0BD
:102F9000022812D0216898B1490500293FDAA168BA
:102FA00021F003010143A160FFF782FD804641F259
:102FB000883910E021688901EFE721688903ECE78F
:102FC0008907EAE7FFF774FDA0EB0801494502D93C
:102FD0000320BDE8F087A068696800F00C00B0EB42
:102FE000810FEFD1287880070AD5A868A16801F081
:102FF000F001884204D2A16821F0F0010143A160F0
:10300000306800F00700B8420BD9306820F00700A4
:1030100038433060306800F00700B84201D001202A
:10302000D7E72878400705D5A068E96820F4E06074
:103030000843A0602878000706D5A068296920F415
:10304000605040EAC100A06000F05EF8A168094A43
:10305000C1F30311515C01F01F01C840064908602B
:1030600006480068BDE8F047FFF740BD0020024079
:103070000010024040750008380100203001002097
:103080000F2202600C4A936803F0030343609368C5
:1030900003F0F0038360936803F4E063C360926815
:1030A0004FF4E06303EAD20202610448006800F0D2
:1030B0000700086070470000001002400020024036
:1030C0000548064900688968054AC1F30221515C38
:1030D00001F01F01C8407047380100200010024075
:1030E000807500080548064900688968054AC1F3EB
:1030F000C221515C01F01F01C84070473801002017
:10310000001002408075000870B52549002318465C
:103110008A68CC6812F00C0204F00306214C4FEAD6
:10312000640509D00C2A05D0042A32D0082A00D11F
:10313000284670BD012E10D10B681B0704D4D1F8AE
:103140009430C3F3032302E00B68C3F30313164E5A
:1031500056F82330DAB10C2AEBD1C86800F003002E
:10316000022818D0032818D01846CA68CB68C2F3C2
:103170000212C3F306234343521CB3FBF2F2C868A6
:10318000C0F34160401C4000B2FBF0F070BD184637
:1031900070BD204670BD2046E7E72846E5E7000001
:1031A000001002400024F400507500082DE9F84397
:1031B00004006FD0FA4DA86800F00C06E86800F033
:1031C00003072078C00664D576B10C2E01D1012FFB
:1031D0000AD0A069002828687AD040F00100286051
:1031E000FFF766FC80465DE02868800702D5A0698D
:1031F0000028DED0216A2868000703D5286800F07F
:10320000F00004E0D5F89400F02202EA10108142A8
:1032100016D9084600F0CCFF00283BD1286840F0C2
:10322000080028602868216A20F0F0000843286020
:103230006868E16920F47F4040EA0120686016E098
:10324000286840F0080028602868216A20F0F00013
:10325000084328606868E16920F47F4040EA012063
:10326000686026B9206A00F0A3FF0028D5D1FFF7D7
:103270004BFFA968CB4AC1F30311515C01F01F0158
:10328000C840C9490860C9480068FFF72FFC0028FA
:103290007ED12EE0CAE000BFFFF70AFCA0EB0800D9
:1032A000022876D828688007F6D5286840F00800FC
:1032B00028602868216A20F0F000084328606868C8
:1032C000E16920F47F4040EA0120686011E0FFE7F7
:1032D00020F001002860FFF7EBFB804606E000BF0E
:1032E000FFF7E6FBA0EB08000228DAD82868800781
:1032F000F6D42078C00740D0082E18D00C2E01D16B
:10330000032F14D06068B0F5803F17D0B0F5A02F20
:10331000286817D020F480302860286820F48020A6
:1033200028606068E0B1FFF7C3FB804614E02868BE
:10333000800322D56068002878D01EE0286840F419
:103340008030EDE740F480202860F7E7FFF7B0FB1E
:10335000A0EB08006428A4D828688003F6D50CE008
:10336000FFF7A6FB804605E0FFF7A2FBA0EB0800F5
:10337000642896D828688003F6D4207880073BD547
:10338000042E11D00C2E01D1022F0DD0E06801E0E7
:10339000AAE1FFE0002828681ED040F48070286071
:1033A000FFF786FB07460CE0286840050CD5E0686F
:1033B0000028C1D008E000BFFFF77AFBC01B02283D
:1033C00093D828684005F7D56868217C20F0F8502C
:1033D00040EA016068600FE020F480702860FFF729
:1033E00067FB074605E000BFFFF762FBC01B022832
:1033F000B1D828684005F7D42078000729D560693E
:103400000028D5F8940012D040F00100C5F89400CF
:10341000FFF74EFB074604E0FFF74AFBC01B0228FC
:1034200099D8D5F894008007F6D512E02BE120F06A
:103430000100C5F89400FFF73BFB074605E000BF1D
:10344000FFF736FBC01B022885D8D5F8940080070B
:10345000F6D42078400766D5A86D0027C00008D4B0
:10346000A86D40F08050A865A86D012700F080503D
:1034700000904F480168C90512D40168814641F4A3
:1034800080710160FFF714FB804605E0FFF710FB39
:10349000A0EB080002287DD8D9F80000C005F5D5BA
:1034A000A068012816D00528D5F8900017D020F084
:1034B0000100C5F89000D5F8900020F0040000BF8E
:1034C000C5F89000A06841F28839C0B1FFF7F0FA62
:1034D00080460FE0D5F8900040F00100F0E740F0A2
:1034E0000400C5F89000F5E7FFF7E2FAA0EB080149
:1034F00049454FD8D5F890008007F5D50EE0FFF785
:10350000D7FA804606E000BFFFF7D2FAA0EB080129
:1035100049453FD8D5F890008007F5D41FB1A86D74
:1035200020F08050A8652078800628D5606A0028A1
:10353000D5F8980012D040F00100C5F89800FFF7C8
:10354000B7FA074605E000BFFFF7B2FAC01B022832
:1035500020D8D5F898008007F6D510E020F00100BB
:10356000C5F89800FFF7A4FA074604E0FFF7A0FAB1
:10357000C01B02280ED8D5F898008007F6D4A06AA0
:10358000F0B3022816D00C2E7DD0286820F0807071
:10359000286000E0A7E0FFF78BFA0446A6E00000F1
:1035A0000010024040750008380100203001002062
:1035B00000700040E868E26A00F00301914228D1FF
:1035C000216B00F0700209011039914221D1626B28
:1035D00000F4FE41B1EB022F1BD194F8382000F02B
:1035E0007841B1EBC26F14D1A18F00F4C002490839
:1035F0004905A1F5001191420BD194F8401000E06B
:103600006AE04908490600F0C060A1F100718142FA
:103610004BD00C2E73D02868400170D4286820F05D
:1036200080702860FFF744FA064604E0FFF740FA8E
:10363000801B022857D828688001F7D4F4E90B01D1
:103640006FF00F0202EB01110843218A520449086E
:1036500002EB4151A26841EA02210843217D4FF06B
:103660007E42490802EB41610843217B40EAC16088
:10367000E968244A11400843E860286840F08070F7
:103680002860E86800E03AE040F08070E860FFF70A
:103690000FFA044605E000BFFFF70AFA001B0228F4
:1036A00021D828688001F7D527E02868800124D434
:1036B000286840F080702860E86840F08070E8601A
:1036C000FFF7F6F9044604E0FFF7F2F9001B0228C1
:1036D00009D828688001F7D50FE000BFFFF7E8F9A7
:1036E000001B022802D90320BDE8F8832868800166
:1036F000F4D4E86804490840E8600020F4E70120B9
:10370000F2E700008C809D01FCFFEEFE70477047E1
:10371000704710B5040003D094F83D0010B107E0E5
:10372000012010BD002084F83C00204600F022F863
:10373000022084F83D00211D206801F0BFF901201E
:1037400084F8480084F83E0084F83F0084F8400084
:1037500084F8410084F8420084F8430084F844006F
:1037600084F8450084F8460084F8470084F83D005A
:10377000002010BD7047000090F83D10012901D0D5
:1037800001207047022180F83D100168CA6842F0AC
:103790000102CA6000680B49884205D0B0F1804F31
:1037A00002D00949884207D18168084A1140062998
:1037B00006D0B1F5803F03D0016841F001010160FE
:1037C00000207047002C014000400140070001002C
:1037D00070472DE9F04104460068C66805694FF05E
:1037E0000007A90713D5B10711D5F91E0161012002
:1037F0002077206880698007204602D0FFF7E8FF25
:1038000004E000F089F8204600F087F82777680781
:1038100016D5700714D521686FF0040008610220E6
:1038200020772068806910F4407F204602D0FFF79F
:10383000CFFF04E000F070F8204600F06EF8277724
:10384000280715D5300713D521686FF008000861E7
:10385000042020772068C0698007204602D0FFF747
:10386000B7FF04E000F058F8204600F056F827773C
:10387000E80616D5F00614D521686FF0100008612F
:10388000082020772068C06910F4407F204602D0CD
:10389000FFF79EFF04E000F03FF8204600F03DF8FF
:1038A0002777E80708D0F00706D021686FF00100FD
:1038B0000861204600F032F8280608D5300606D503
:1038C00021686FF0800008612046FFF720FFE805BF
:1038D00008D5300606D521686FF48070086120464F
:1038E000FFF714FF680608D5700606D521686FF04B
:1038F00040000861204600F01BF8A8060AD5B00673
:1039000008D521686FF0200008612046BDE8F0412D
:10391000FFF7FEBEBDE8F0817047704700680349BD
:10392000884201D1FFF7CAB870470000001000407C
:103930007047704770B50446C06FD4F88060216846
:1039400089684FF01005090618D5212816D120687E
:10395000083050E8001F21F0800140E80012002AE2
:10396000F5D1206F38B1FEF76EFE20B1206FFEF763
:103970008FFE202821D0204601F02EFA2068806892
:10398000400618D5222E16D12068083050E8001FB6
:1039900021F0400140E80012002AF5D1606F38B1F3
:1039A000FEF751FE20B1606FFEF772FE202804D0B2
:1039B000204601F0EBF9002070BDC4F884500320CC
:1039C00070BD704710B5040002D0E06F10B107E081
:1039D000012010BD002084F87800204600F026F871
:1039E0002420E0672068016821F001010160606A1D
:1039F00010B1204601F098F8204601F0F9F90128AD
:103A0000E7D02068416821F49041416020688168D6
:103A100021F02A0181602068016841F00101016004
:103A20002046BDE8104001F0E3B800002DE9F04F5A
:103A30009BB00546142115A8FCF7BDFE542168462D
:103A4000FCF7B9FE59492868594F002402264FF067
:103A500003084FF0070A4FF0800B884252D1012033
:103A6000009008966846FFF723F908B1FEF7C8F8FA
:103A7000386E40F480403866386E00F480401A900A
:103A8000F86C40F00100F864F86C17AA00F001002F
:103A90001A904FF4C060CDE9150682E8100515A90B
:103AA0004FF09040FEF7FEFE434F42484FF0200893
:103AB0003860C7E90164C7E9034B7C61C7E9064880
:103AC000D94638463C62FEF743FE08B1FEF798F847
:103AD0006F67BD623748394F1438E7E80206102097
:103AE000A7E81102354847F81449C7E906483C627F
:103AF000FEF72EFE08B1FEF783F82F67BD621BB0FC
:103B000000F064B82E498842F9D1684600960994BD
:103B1000FFF7CEF808B1FEF773F8B86D40F4003047
:103B2000B865B86D00F400301A90F86C40F00100F0
:103B3000F864F86C17AA00F001001A900C20CDE987
:103B4000150682E81005B146374615A94FF090409A
:103B5000FEF7A8FE17481B4E28304FF02008E6E875
:103B6000020710205F4691C6164846F81449C6E978
:103B700006483462FEF7ECFD08B1FEF741F82E6707
:103B8000B5620C48104E14303060C6E90194C6E9A5
:103B900003477461C6E9064830463462FEF7D8FD33
:103BA00008B1FEF72DF86E67B562A8E7003801404E
:103BB0000010024058000240AC530020F453002093
:103BC000004400403C5400208454002030BCBDE838
:103BD000C08F000030B4D0F88030202B02D00220FB
:103BE00030BC7047A9B1A2B1002303660A4C036838
:103BF000A3420BD05B681B0208D5046854E8003F61
:103C000043F0806344E80035002DF6D130BC01F06C
:103C1000DDB90120E4E700000080004000680549AC
:103C2000884206D1044882687130A0F1F101C07861
:103C300008707047004400408000002070472DE964
:103C4000F8430446C06F984616460D46202802D019
:103C50000220BDE8F88395B18EB10020C4F884003D
:103C60002120E067FEF724FFA4F850608146A4F805
:103C70005260A0682027B0F5805F02D003E00120E9
:103C8000E7E7206910B12E46002510E000260EE07F
:103C90008021204601F0EAF9C0B9D6B116F8010B2F
:103CA00021680885B4F85200401EA4F85200B4F808
:103CB00052004B464FF00002CDF800800028E7D1BB
:103CC0004FF04001204601F0D1F938B1E7670320F9
:103CD000BFE735F8020BC0F30800E1E7E767002013
:103CE000B7E7FEE71CB51D4C606EB0F1844F10DCE9
:103CF00003F084FB41EC100B04F5807090ED001B89
:103D000051EC100B53EC112B03F090F803F05CF81E
:103D1000606603F073FBCDE90001104810A2052195
:103D2000EC30FCF7D3FB0D48EC30FCF7D8FC6067B7
:103D300002F006F94FF47A74204601F0C1FB01F05D
:103D4000ADFA204601F0BCFB01F0B6FA204601F0C6
:103D5000B7FBBDE81C4002F0D7B80000000000200F
:103D6000252E31660000000000EB8100006E00F09F
:103D7000F84070478068C0F3C00070478068C0F3A7
:103D800080007047C06810F4406F01D00020704779
:103D900001207047042303EAD15310B51844436946
:103DA000C1F3045107248C40A3438A401343436169
:103DB00010BD00EB8100016E21F00041114301664E
:103DC0007047000070B586B018216846FCF7F3FC18
:103DD0003B4800243B4AC36B3B4806260121C0E90F
:103DE00000240425012B14D045618460C0E90341FF
:103DF00004764176C16180F820408462C46280F814
:103E00003010446380F83840FEF75AFAC0B372B6F7
:103E1000FEE7082245618260C0E9034104764176ED
:103E2000C56180F820408462C46280F83010446329
:103E300080F838402448FEF743FA08B172B6FEE72E
:103E4000224800901820019069461F48FDF7DAFECD
:103E500008B172B6FEE71E4800900C20019069463A
:103E60001948FDF7CFFE08B172B6FEE71948CDE953
:103E7000000669461448FDF7C5FE10B172B6FEE7AC
:103E80000BE0154800901220019069460E48FDF79E
:103E9000B9FE002811D072B6FEE71048CDE9000641
:103EA0007F20CDE90240CDE9045469460648FDF77C
:103EB000A9FE002801D072B6FEE706B070BD000072
:103EC0000000002000000450643100200004002A9B
:103ED0000002B0252000F0144000201900106032CC
:103EE000194808B5816C41F001018164806C0022A1
:103EF00000F00100009005210B20FEF76BFE0B2067
:103F0000FEF75AFE002205210E20FEF763FE0E206A
:103F1000FEF752FE002205210F20FEF75BFE0F2068
:103F2000FEF74AFE002205211020FEF753FE102066
:103F3000FEF742FE002205211120FEF74BFEBDE8F0
:103F400008401120FEF738BE001002402DE9F04174
:103F500086B014216846FCF72EFC1B48C16C41F06A
:103F60000101C164C16C01F001010591C16C41F016
:103F70000201C164C06C154F00F0020005900022E0
:103F8000FB213846FEF78FFD4FF4C0564FF09048A6
:103F9000002231464046FEF786FDFB2000900125B9
:103FA0000024CDE90154694638460394FEF77AFCB3
:103FB0000096CDE90154694640460394FEF772FC31
:103FC00006B0BDE8F0810000001002400004004887
:103FD0000C4810B50A4901604FF4E13141600021FD
:103FE00081600C22C160C0E904128161C16101627B
:103FF0004162FFF7E7FC002801D072B6FEE710BD72
:1040000000380140C83100200C4810B50A49016051
:104010004FF416514160002181600C22C160C0E95B
:1040200004128161C16101624162FFF7CBFC00288B
:1040300001D072B6FEE710BD0044004050320020AF
:10404000FEE7000000B58DB0024603A16846FCF70C
:1040500027FA0DB000BD000070616765202564007F
:1040600000B58DB00B46024602A16846FCF718FA6F
:104070000DB000BD25732E76616C3D2564000000F7
:10408000FEE700002DE9F041444C05468846E06813
:104090000026810728680DD0E16801F00301814204
:1040A00016D1A8B1E0686968C0F30210401C8842CC
:1040B0000ED120E0012804D0022805D0032807D122
:1040C00008E02168890701E021684905002907DB2C
:1040D00001265FE02168890302D421684903F5E7DE
:1040E000E1686A686FF00F0321F0730103EB0212BD
:1040F00011430143E160206820F080602060FEF7FA
:10410000D7FC074605E000BFFEF7D2FCC01B022823
:1041100037D820680001F7D4B8F1000F18D0B8F1F3
:10412000010F1DD0287D4FF07E41400801EB40601B
:10413000A96840EA01202169194A11400843206119
:10414000206840F080602060FEF7B2FC07461AE06D
:10415000A868297B000240EAC1602169114AECE7A6
:10416000288A1149400801EB4050A96840EA012023
:1041700021690E4AE1E700BFFEF79AFCC01B022846
:1041800001D9032606E020680001F5D52069A96958
:10419000084320613046BDE8F08100000010024075
:1041A000FF80FFF9FF80FF070000E0FFFF809FFF17
:1041B000F8B51C4D06460024A86DC00002D5FEF7D8
:1041C0006FFD0DE0A86D40F08050A865A86D00F06F
:1041D00080500090FEF764FDA96D21F08051A96523
:1041E000B0F5007F04D0802E07D94FF003040AE019
:1041F000802E08D9A02E01D804E001D1022402E0CB
:10420000702E00D101240848016821F007012143E4
:104210000160006800F00700A04201D00120F8BD55
:104220000020F8BD00100240002002402DED068B5A
:1042300082B04FF47A6A4FF47A7B9FEDFC9B9FED3E
:10424000FD8AFD4DF6EE008A4FF000090126C5F803
:104250007190F94985F875904F4664230422091D31
:10426000F648C5F80890FFF7EAFC4FF4FA60FEF74D
:1042700007FBF14C803C207808B101287ED16762B1
:10428000AF652762AF62E762A7602763A7626F65C9
:10429000A761E7602F63E6632F6600224FF4006199
:1042A0004FF090402766FEF7FEFBFFF78BFDE449D9
:1042B0005A46A1F64410FEF72FF9642001F000F9E8
:1042C000DFF8808322E0696B41450ADAA96B41453A
:1042D00007DADD48E96B814203DA6420E76301F025
:1042E000EFF8642001F0ECF8206C78B9E06B01285D
:1042F0000FD10320FFF7A6FE0520E062642001F045
:10430000DFF8D2A0E16AFFF7ABFE2664E06B01287C
:10431000D9D0E762B9462764CE4F0122114638460C
:10432000FEF7C1FB012202213846FEF7BCFBFEF777
:10433000BFFB28640120FFF785FEC048EC38FEF77C
:1043400045F9FFF73FFDBD495A468831A1F5BA70DE
:10435000FEF7E2F810E300BFFEF7AAFB6864296CE1
:10436000411A41F2883081421EDDA86A14281BD20E
:10437000002201213846FEF796FB00E08DE0AF48B1
:10438000EC38FEF723F9002202213846FEF78BFBBA
:104390000320FFF757FE4FF4FA70E66201F090F841
:1043A000AAA0E16AFFF75CFEE06A002875DCA0467F
:1043B000D8F8080040B1A96AA7A0FFF751FED8F8C5
:1043C000080001286AD0D4E2A96A8C2900D910B16A
:1043D00001280AD00CE0002201213846FEF763FBD9
:1043E000322001F06DF8C8F80860A86A8728FCD26E
:1043F000D8F83000012822DBC8F83090514699489F
:10440000C8F80890FCF7D7F951469748FCF7D3F95C
:10441000C8219648FCF7CFF9012211463846FEF72D
:1044200042FBA96AB429FCD3002201213846FEF7D9
:104430003AFB322001F044F8C8F8086003E0D8F8ED
:104440000800012802D1A86AAF28FCD2D8F83000B1
:10445000012824DBC8F8309051468248C8F80890FB
:10446000FCF7A9F951468048FCF7A5F9C8217F4817
:10447000FCF7A1F9012211463846FEF714FBA96AA0
:10448000DC29FCD3002201213846FEF70CFB322048
:1044900001F016F8C8F8086005E071E260E0D8F8AD
:1044A0000800012802D1A86AD728FCD2D8F8300029
:1044B000012824DBC8F8309051466A48C8F80890B3
:1044C000FCF779F951466848FCF775F9C821674847
:1044D000FCF771F9012211463846FEF7E4FA4FF471
:1044E0008272A96A9142FCD3002201213846FEF76C
:1044F000DAFA322000F0E4FFC8F8086003E0D8F8E8
:104500000800012802D1A86AFF28FCD2D8F83000A0
:104510000528FFF64DAFC8F8309051465148C8F80D
:104520000890FCF748F951464F48FCF744F9C82178
:104530004E48FCF740F9012211463846FEF7B3FA1F
:104540004FF49171AA6A8A42FCD3002201213846B5
:10455000FEF7A9FA322000F0B3FFC8F808602AE796
:10456000D8F86000584503DAAA6A414941F820208A
:10457000401CC8F86000A86A3C2856D8D8F8240027
:10458000002852D13948C830FEF720F80022022115
:104590003846FEF788FAD8F83000022804DA0320FB
:1045A000FFF750FD0220DAE0192801DA0A2100E0C5
:1045B0001E212D4800F05AFF85ED120A2948D8F82F
:1045C0000C109FED2C1A00EBC100434690ED000A41
:1045D000C0EE080ABDEEE00A88ED060AF8EEC00A51
:1045E00098ED110A00F032FEBDEEC00A10EE100A7E
:1045F0009864D96C0818D86401D5C8F84C901C4947
:104600000620DC4601EB800351F8202053F8043CDF
:104610005B1D9A4200DD2E66401C6045F2DB286E71
:1046200001287DD0A86C009026E0A2E100000000E7
:10463000000008400000C8428000002050320020E6
:10464000A83A00200000FF43000096436572726F95
:104650007200000000040048707265737375726523
:10466000000000005C110020FC2000209C30002095
:10467000C44300200000204202F0C0FE9FEDC41B96
:1046800053EC112B02F0D2FC02F09EFBE864009880
:1046900002F0B4FE9FEDC01B53EC112B02F0C6FCE0
:1046A00002F092FB00EE100ABD4888ED070A00F008
:1046B00073FE286595ED130AB94800F01DFE024609
:1046C0006865D8F8300000EBD073B648591000EB9D
:1046D0008101D0ED010A11ED010A30EE600A9FED73
:1046E000B21A4FF0FF3000EB6300C0EE010AC0EBDE
:1046F0000010800000EE100AAC49B8EEC01A81EE3E
:10470000200A20EE280ABDEEC00A10EE103AC8F8C2
:10471000283091ED030AC0EE080ABDEEE00A00E081
:1047200028E010EE100A01EBC201A86591ED000A25
:10473000C0EE080ABDEEE00A10EE101AC8F820100C
:10474000814208DC1E2906DDB0F5967F03DA232BB3
:1047500001DDA02B13DB0320FFF774FC0320E062D4
:104760004FF4FA7000F0ACFEAFF22010E16AFFF7F0
:1047700077FC05E10320FFF765FC0420EFE701204B
:10478000FFF760FC8AA0A96DFFF76AFC89A0D8F842
:104790002010FFF765FC88A0D8F82810FFF760FC10
:1047A0008648EE61FFF7C6F8042285498348C5F8BC
:1047B0006890FFF70FFAD8F87C0060B1D8F8541071
:1047C000A86D091AC8E91410B42822DB7C481830F7
:1047D00080ED009B24E0A86D9FED7A0BC8F8540093
:1047E0007748183080ED000BFFF77CFA98ED190A36
:1047F00088ED1A0A9FED750A88ED160A88ED170AEA
:10480000D8F87C00401CC8F87C00714800F058FEC5
:1048100095E0A0F1A5010F2907D29FED6E0B11E0E5
:10482000FFF760FA01F01EFB3FE0A0F191011429AF
:1048300002D29FED6A0B05E0A0F182010F2906D29A
:104840009FED680B5E48183080ED000BE8E7A0F1A3
:1048500064011E2907D25A48183080ED009BFFF7EB
:1048600041FAAE60DEE7642823D26049D8F85C00E4
:10487000884202DD9FED5E0B11E05F490144B1F516
:10488000401F02D29FED5D0B09E05E490844B0F580
:10489000A00F02D29FED5C0B01E09FED5D0B48483D
:1048A000183080ED000BFDF767F947F2305000F04B
:1048B00007FED8ED190A98ED1A0A424630EEC00AF2
:1048C00088ED1B0AC8ED1A0AD8F85010002936DD09
:1048D000B5EEC00AF1EE10FA31DD00EE901AF8EEF6
:1048E000E00AB4EEE00AF1EE10FA28D2106F0428C4
:1048F00025DC00EE901AB0EE48AA0128B8EEE01AC6
:10490000C0EE010A00EEC8AA82ED16AA3DD092EDD3
:10491000170A30EE0A0A20EE280A82ED170A3E49ED
:1049200001EB800181ED00AA3B4992ED170A50315D
:1049300001EB8001401C81ED000AC8F87000D8F836
:10494000780014280FDA344AA96DA03A42F82010F2
:1049500002F1500198ED190A01EB8001401C81ED34
:10496000000AC8F87800C8F82460C8F80890C8F8A9
:104970003C60322000F0A4FDE06B00283FF4ECAC7A
:1049800040F6C41000F09CFD61E482ED17AAC6E772
:10499000333333333333E33F9A9999999999C93F24
:1049A000FC2000209C30002000007A445C11002094
:1049B000737973006469610062706D005032002089
:1049C000E80000200000000000004E400000000051
:1049D000A08601000000000000000440000000006C
:1049E00000000040000000000000F03F0000A04276
:1049F00000000000000008C0000090BD00000000A2
:104A0000000000C00000E0BD000000000000F0BF9A
:104A1000000000000000E0BF2443002010B54FF06C
:104A2000E020006902F004F8012803D0BDE810403E
:104A300001F02EBD10BD10B596B044216846FBF7BD
:104A4000BAFE142111A8FBF7B6FE4FF40070FEF772
:104A5000F3F808B172B6FEE7122000904FF48070B0
:104A600003901020049000240120CDE9060440208A
:104A700008900A946846FEF799FB08B172B6FEE703
:104A80000F20CDE9110413941494002111A815945A
:104A9000FEF754FA002801D072B6FEE716B010BD3A
:104AA0000248016841F470010160704788ED00E040
:104AB0000148FEF78EBE0000CC54002070B502689D
:104AC000164B4FF08046984201D0B04203D122F0FD
:104AD00070044A682243124C124D984205D0B042ED
:104AE00003D0A04201D0A84203D122F44076CA6884
:104AF00032434E6922F08002324302608A68C26209
:104B00000A688262984203D0A04201D0A84201D133
:104B1000096901630121416170BD0000002C014061
:104B2000004001400044014090F82410090706D5D8
:104B300001684A68436B22F400421A434A6090F8C5
:104B40002410C90706D001684A68836A22F400323B
:104B50001A434A6090F82410890706D501684A680C
:104B6000C36A22F480321A434A6090F8241049073D
:104B700006D501684A68036B22F480221A434A6012
:104B800090F82410C90606D501688A68836B22F460
:104B900080521A438A6090F82410890606D501686D
:104BA0008A68C36B22F400521A438A6090F824107A
:104BB000490611D501684A68036C22F480121A4331
:104BC0004A60016CB1F5801F06D101684A68436CE8
:104BD00022F4C0021A434A6090F82410090606D550
:104BE00001684A68806C22F4002202434A607047E0
:104BF0002DE9F84300260446C0F88460FDF758FF0D
:104C00008046206800684FF0200500076FF07E475F
:104C100012D54346002229042046009700F026FAC8
:104C200050B1216851E8000F20F0800041E80002F7
:104C3000002AF6D1E56721E020680068400722D508
:104C4000434600224FF480012046009700F00EFA00
:104C5000C8B1216851E8000F20F4907041E80002CB
:104C6000002AF6D12068083050E8001F21F0010129
:104C700040E80012002AF5D1C4F8805084F878602A
:104C80000320BDE8F883E567C4F8805044F8606FFE
:104C9000666026760020F4E770B5846AE06FD4F889
:104CA0008050216889684FF00006090606D5212842
:104CB00004D1A4F85260204600F08EF82068806885
:104CC000400606D5222D04D1A4F85A60204600F0F3
:104CD0005DF8D4F8840040F01000C4F88400204649
:104CE000FEF76FFE70BD10B50146806A096809685D
:104CF0004FF0000289062DD4A0F85A20036853E82B
:104D0000001F21F4807143E80014002CF6D10168E3
:104D1000083151E8003F23F0010341E80034002C42
:104D2000F5D10168083151E8003F23F0400341E824
:104D30000034002CF5D12021C0F88010016E01292B
:104D400008D1016851E8003F23F0100341E8003426
:104D5000002CF6D14266016E012902D0FEF75EFFFB
:104D600010BDB0F85810FEF7E4FD10BD10B5806A14
:104D700001214166016E012902D0FEF75FFF10BDDF
:104D8000B0F858104908FEF7D4FD10BD016851E88D
:104D9000002F22F4907241E80023002BF6D1016825
:104DA000083151E8002F22F0010241E80023002BD6
:104DB000F5D1016E012908D1026852E8001F21F0E7
:104DC000100142E80013002BF6D12021C0F880101A
:104DD0000021016681667047026852E8001F21F0D9
:104DE000C00142E80013002BF6D12021C1677047B3
:104DF0002DE9F0410446016880682269E6691043A4
:104E00006269002532431043694B0A68694E32409B
:104E100002430A6020684168E26821F4405111436E
:104E200041602168A069994201D0226A10438A68D2
:104E300022F4306202438A605F4927685F488F42EC
:104E40000DD1D0F8880010F0030006D0012838D02A
:104E5000022834D0032821D135E001211FE0584930
:104E60008F420BD1D0F8880010F00C0025D0042818
:104E700027D0082823D00C2810D124E09F420DD140
:104E8000D0F8880010F4406017D0B0F5806F18D0CB
:104E9000B0F5006F13D0B0F5406F14D01021494A1F
:104EA00000264FF400409F422FD171B102290FD04C
:104EB00004290FD0082973D10FE00021EFE7022168
:104EC000EDE70421EBE70821E9E7FEF7F9F803E055
:104ED000104602E0FEF718F9F0B3626802EB4201F7
:104EE00081425DD8B0EB023F5AD8010E0302500850
:104EF000181871410023FBF75BFA334AA0F54071A3
:104F000091424DD82168C8604BE0E3694FF6EF77D6
:104F1000834228D1092943D2DFE801F005080B427A
:104F20000D4242421000FEF7CBF806E0FEF7DAF839
:104F300003E0104602E0FEF7E7F868B14100606860
:104F400001EB5001B1FBF0F0A0F11001B94227D8FC
:104F50004FF6F071014000E023E0C0F3420001434E
:104F60002068C1601DE009291AD2DFE801F00508B8
:104F70000B190D1919191000FEF7A2F806E0FEF73B
:104F8000B1F803E0104602E0FEF7BEF848B16168F0
:104F900000EB5100B0FBF1F0A0F11001B94205D9CE
:104FA0000125A6662846E666BDE8F08180B2A9E73D
:104FB00000800040F369FFEF00380140001002401C
:104FC000004400400024F400FFFC0F0070B5416570
:104FD000A0F8582000210446C0F884102220C4F80C
:104FE0008000606FD0B11E4BC362636F1D481863B1
:104FF000636F1D485863606F13468163656D216858
:105000002A462431606FFDF703FC38B11020C4F844
:1050100084002020C4F88000012070BD206940B1C8
:10502000216851E8000F40F4807041E80002002A36
:10503000F6D12068083050E8001F41F0010140E837
:105040000012002AF5D12068083050E8001F41F016
:10505000400140E80012002AF5D1002070BD000098
:10506000E74C00086D4D0008994C00082DE9F04709
:10507000994617460E4604464FF00008089D2FE05B
:10508000681C2DD0FDF714FDA0EB0900A84214D830
:105090009DB120680168490722D5C169C943090744
:1050A0000DD4082505622046FFF770FEC4F8845031
:1050B00084F878800120BDE8F0870320FBE7C06911
:1050C000C04300050CD421684FF4006008622046FC
:1050D000FFF75CFE2020C4F8840084F87880ECE7B9
:1050E0002068C06936EA000004D00020B842C7D06A
:1050F0000020E0E70120F9E7FEE703B40198410052
:10510000009850EAC12018BF04204A0D18BF40F093
:10511000010040F2FF72B2EB515F08BF40F00200A5
:10512000012808BF052002B070470907090E0028B2
:1051300004DB00F1E02080F80014704700F00F005D
:1051400000F1E02080F8141D704730380A2801D2A1
:105150000120704700207047074800216423017038
:10516000EB21417004218170ED21C17001460422C0
:105170000248FEF764BD000080000020503200208D
:10518000304C0025A068012858D12E496423042200
:10519000091D2D48FEF753FD2B48FEF7CBFB29498F
:1051A000C4F8715084F87550052271312648FEF715
:1051B00011FD41F2883000F083F9224880380078F0
:1051C00007280ED1606960B900F0BAFE4FF4FA60AA
:1051D000FDF756FBFFF7C0FF012060612069401C0E
:1051E00020611849642304220C311748FEF727FD7B
:1051F0001548FEF79FFB13480822803000F1080194
:105200008560C5601048FEF7E5FC4FF4FA7000F0C9
:1052100057F90C48F2EE040A8830B0F803104279CE
:1052200049BA0904807941EA0221014300EE101ACB
:10523000B8EEC00A80EE201A84ED061A012000F0B4
:105240003FF99FE7800000205032002070EEC10A35
:105250000F4910EE900A884215DA10EE902A0D4997
:105260000D488A4203D210EE902A82420FDB10EEE4
:10527000902A824207DC10EE900A884207D9F0EEAD
:10528000000A00F015B8F0EE000A00F0A9B8704767
:105290000000A0410000A0C00000A04064230E2236
:1052A00001490248FEF7CBBC1E010020503200200D
:1052B00030EE600A704700000D48F2EE040A0C4917
:1052C00090ED190A8031642320EE200ABDEEC00A59
:1052D00010EE100A48669031020ECA70020C0A7174
:1052E000020A4A7188710E220248FEF7A8BC00002B
:1052F000000000205032002030B5254903469FEDC4
:10530000251A086B00EBD070441003EB840221EEE9
:10531000001AD2ED000ACA6870EEC00A511CF0EE05
:10532000E00A19E003EB8105D5ED001AF4EEC11A8D
:10533000F1EE10FA0FD2D5ED011AF4EEC11AF1EE2A
:1053400010FA08D2D5ED021AF4EEC11AF1EE10FAF5
:1053500001D2084630BD491CB1EB600FE2DB4010C2
:10536000521C10E003EB800191ED001A31EE401A5F
:10537000B0EEC11AB4EEE01AF1EE10FA02D2F0EE7D
:10538000410A0446401E9042ECDA204630BD00003F
:10539000000000203333B33E10B5D0ED000A0F4BB0
:1053A000014670EE600A0020DB6813E001EB800428
:1053B00094ED001A30EE411AB5EEC01AF1EE10FA73
:1053C00007DDB4EEE01AF1EE10FA02D2F0EE410A77
:1053D0000246401C9842E9DD104610BD0000002046
:1053E00030EE200A7047000010B5FDF76FFBFFF7A5
:1053F00022FBFEF7ABFDFEF773FDFEF7E3FCFEF7C5
:10540000E7FDFEF701FE0020FEF71CFE0922114910
:105410001148FEF7DFFB322000F052F80E4805225B
:105420000E498830FEF7D6FB00F058F80C4A0021F0
:105430000C4800F081F8094C094A713C2432206282
:105440000021094800F078F8606200F059F8002067
:1054500010BD000078420020C8310020F10000207B
:10546000F87400082D4200088151000830B5134B34
:1054700090ED000A002283ED170AA3F1800418E0E2
:1054800000EB8205D3ED170A95ED000AB4EEE00AB1
:10549000F1EE10FA0CDDF5EEC00AF1EE10FA07D0CD
:1054A000B5EEC00AF1EE10FA02D083ED170AE26001
:1054B000521C8A42E4DB93ED170A30BD80000020C5
:1054C00010B5EFF3058111B16FF0050403E000247E
:1054D00008B100F07DFE204610BD0000EFF305800E
:1054E00010B16FF0050070470448016811B14FF02A
:1054F000FF30704701210160002070478C010020BF
:1055000010B5EFF3058010B16FF0050010BD08482D
:105510000168012902D04FF0FF3010BD054A00217B
:1055200082F8141D0221016000F0BAFE002010BDB7
:105530008C0100200BE000E02DE9FF414FEA010360
:105540004FF00005EFF30581039549BB40B3802779
:10555000182100244AB3166806B1344696691EB174
:105560003146761E382E02D21679F60703D0002077
:1055700004B0BDE8F081566906B1B708D2F808C09A
:10558000BCF1000F0DD0D5685C2D18D312693AB16B
:1055900036B18DE806103A46214601F01DFA039017
:1055A0000DE0D6685EB912694AB903AACDE90012C6
:1055B000BAB2214601F0E0F9012800D00395039822
:1055C000D6E700002DE9F041134C0F460546E6688A
:1055D0002068001D00F0C8FC681C07D137B12168A5
:1055E000BDE8F0410D48091D00F00EBD20683544AE
:1055F000B5424560216805D2A06BBDE8F041091DA8
:1056000000F0EABC606B091D00F0E6FCA06A854270
:1056100000D2A562BDE8F0813C010020085A0020BC
:105620002DE9F041054600F0FBFC2D4CA068401C24
:10563000A06020682B4F10B1606930B32BE025606B
:10564000A068012827D1002606EB860007EB800022
:1056500000F0B4FC761C382EF6D3234800F0AEFCE4
:105660002148143000F0AAFC1F48283000F0A6FCA6
:105670001D483C3000F0A2FC1B48503000F09EFC5E
:10568000194860631430A06305E02068E96AC06AC5
:10569000884200D82560606A401C60626864E86ADD
:1056A0002169884200D9206100EB800007EB80006F
:1056B000291D00F0A9FC00F0D3FC606900280CD083
:1056C0002068E96AC06A884207D208494FF08050D2
:1056D0000860BFF34F8FBFF36F8FBDE8F08100000C
:1056E0003C01002058550020B859002004ED00E08E
:1056F00038B500F095FC104C2068C8B90F4800F090
:105700005DFC0E48143000F059FC0C48E060143089
:1057100020610A4B0020F03B009003F15002102161
:105720000A2000F0CBFE206010B105A100F01AFDA8
:10573000BDE8384000F094BC780100200C5B0020EC
:10574000546D72510000000030B4026C0B46002A08
:105750000BD0C1681144C1608468A14201D30168C3
:10576000C16030BC1846FAF7D9BF30BC70472DE98C
:10577000F041856B174604460026026C82B1C7B122
:10578000E068FAF7CBFFE168206C091AE160226853
:10579000914202D2A168081AE060022F16D017E0E9
:1057A0002068A8B9A06801F0BBF906460020A060F7
:1057B0000EE06068FAF7B2FF216C60680844606030
:1057C000A168884204D32068606001E005B16D1EC5
:1057D0006D1CA5633046BDE8F08110B5044690F815
:1057E000590058B101280CD002280FD0502080F366
:1057F0001188BFF34F8FBFF36F8FFEE7206B00F070
:1058000043FC2046BDE8104000F03EBC10BD000047
:105810000F4840F6B831420705D0C01D0C4A20F0B1
:105820000700821A891A0B4A00230144C2E90003C7
:105830000839183A21F0070111604B600B600B1A10
:10584000C0E9001393604FF000405360506170470F
:10585000EC610020A8010020144E154CA6F29C47D4
:105860004FF08058DFF84C9012E000BF00F0D8FBFA
:10587000F068C568281D00F077FBA068401EA06096
:105880006068401E606000F0EBFB2846FFF7A5FF54
:1058900060680028EAD138680128F9D9C9F8008081
:1058A000BFF34F8FBFF36F8FF2E70000F459002072
:1058B0003C01002004ED00E070B51D46049C51B190
:1058C000C4F80020C4E90F010121204600F02AFE9F
:1058D00084F84C5070BD2460F4E700002DE9F05FBF
:1058E0008846DDE90B941546834691009A460A9E48
:1058F000A522206BFAF757FF6FF00301206B01EB35
:105900008501084420F00707780707D0502080F36E
:105910001188BFF34F8FBFF36F8FFEE70025B8F1FB
:10592000000F0FD05FF00000221818F8001082F866
:10593000341018F8001011B1401C1028F4D384F86A
:10594000435001E084F83450382E00D33726E66205
:10595000C4E91365201D00F03CFB04F1180000F0C1
:1059600038FB2461C6F138006462A061656584F883
:10597000585052465946384600F05EFA2060B9F158
:10598000000F01D0C9F8004000F000B830BCBDE8FD
:10599000C09F000030B5114900E011460A688242FC
:1059A000FBD34B685C18844203D1406818444860BC
:1059B000084643681C18944209D1084C183C2468D6
:1059C000A24209D052681A4442600A681268026012
:1059D000814200D0086030BD0460F9E7A8010020D2
:1059E00070B5002441600B4D0061914206D8D11A78
:1059F0008269914206D2011D286907E09A4203D2CA
:105A0000994201D3012403E0011DE86800F0E4FAA3
:105A1000204670BD7801002010B5044600F000FB60
:105A2000A06B28B15FF0000400F01AFB204610BD07
:105A30000124F9E730B589B03C4D6EE004980028A8
:105A400006DADDE90601059A90470498002864DB30
:105A5000069C606910B1201D00F086FA03A800F0D2
:105A6000D7F8024604980A2857D2DFE800F0050567
:105A7000052D334A05052D3394F8280040F0010028
:105A800084F828000599A069059B01442046FFF78A
:105A9000A7FF68B3216A2046884794F8280040078A
:105AA0003BD5002000900598A169002342181946B3
:105AB000204601F03FF9D8B9502080F31188BFF398
:105AC0004F8FBFF36F8FFEE714F8280F20F001000F
:105AD000207022E094F8280040F0010084F82800AB
